:100000000C94DD0C0C94FA0C0C94FA0C0C94FA0C75
:100010000C94FA0C0C9442270C946B270C94FA0C59
:100020000C94FA0C0C94FA0C0C94FA0C0C948E258B
:100030000C94FA0C0C94FA0C0C94FA0C0C94FA0C28
:100040000C94FA0C0C94FA0C0C94FA0C0C94FA0C18
:100050000C94FA0C0C94FA0C0C94FA0C0C94FA0C08
:100060000C94FA0C0C94FA0C0C94FA0C0C94FA0CF8
:100070000C94FA0C0C94FA0C0C94FA0C0C94FA0CE8
:100080000C94A2260C94FA0C0C94FA0C0C94FA0C16
:100090000C94FA0C0C94FA0C0C94FA0C0C94FA0CC8
:1000A0000C94FA0C0C94FA0C0C94FA0C0C94FA0CB8
:1000B0000C94FA0C0C94FA0C0C94FA0C0C94FA0CA8
:1000C0000C94FA0C0C94FA0C0C94FA0CCB0D180E40
:1000D000180E180E180ED60D180E180E180E180E33
:1000E000E10D180E180E180E180EEC0D180E180E45
:1000F000180E180EF70D180E180E180E180E020E08
:10010000180E180E180E180E0D0E29184218C819C0
:10011000CE1A8C1BB01B6E1C601D941DD71DDE24D7
:10012000EB24F62401250C25172522252D254E2507
:1001300038254325592564256C24FFFF5802D40037
:10014000C201FD0096003E015802FD005802D40095
:1001500058029F00B0047E00C2018E0096009F00EE
:100160005802FD005802E1005802D400B004D40047
:100170002C01D4002C017E0084038E002C019F00F2
:100180005802A800B004BD002C01A8002C019F005B
:1001900058029F005802D4005802FD0058023E0148
:1001A0005802D400C201FD0096003E015802FD0035
:1001B0005802D40058029F00B0047E00C2018E0095
:1001C00096009F005802FD005802E1005802D4003A
:1001D000B004D4002C01D4002C017E0084038E00D6
:1001E0002C019F005802A800B004BD002C01A800FB
:1001F0002C019F0058029F005802D4005802FD00B5
:1002000058023E015802FFFF58027E00B004FFFF73
:1002100058028E002C018E0058029F002C019F0076
:100220002C01A8002C019F00DC05BD005802A8008D
:100230002C019F0058028E002C018E005802A8004D
:10024000B004FFFF84039F00B004FFFF5802A80022
:100250002C01A8005802BD002C01BD002C01D400C7
:100260002C01BD00DC05E1005802D4002C01BD00CA
:100270005802A8002C01A8008403D4000807FFFF3F
:1002800008071C012C018E0058028E0058028E00B7
:100290002C018E0058029F002C019F005802A800DC
:1002A00058029F002C019F005802A800B0041C01B6
:1002B0005802FD005802E1002C01FD005802E10047
:1002C0008403FFFF58021C012C01BD005802BD0031
:1002D0005802BD002C01BD005802D4002C01D400EE
:1002E0005802E10058027E002C01D4005802E100BF
:1002F000B0043E0158021C015802FD002C011C01F3
:10030000580265018403FFFF5802BD005802EE0049
:100310005802BD005802EE005802BD005802EE001F
:10032000B004FFFF5802BD002C01BD002C01FFFFEF
:100330002C01BD002C01FFFF2C01EE002C01BD00A3
:1003400058029F005802FFFF58023E015802FFFF6B
:100350005802EE0084033E012C01FFFF58027B018E
:1003600084031C015802FD0058020C012C011C01E1
:1003700058023E019001BD0090019F0090018E0047
:100380005802B3002C019F002C01FFFF2C01BD007F
:100390005802EE002C01D4002C01FD005802FFFF92
:1003A0002C01FFFF58029F002C01A8002C01B30074
:1003B0002C01C8005802BD002C01FFFF2C012D01AB
:1003C0002C011C012C01EE002C01FFFF2C011C0153
:1003D0002C01EE002C01D4002C01FFFF58029F00DD
:1003E0002C01A8002C01B3002C01C8005802BD004C
:1003F0002C01FFFF2C0177002C01FFFF2C0177005F
:100400002C017700B004FFFF58029F002C01A800C8
:100410002C01B3002C01C8005802BD002C01FFFFC5
:100420002C012D012C011C012C01EE002C01FFFFE1
:100430002C011C012C01EE002C01D4002C01FFFF2B
:100440005802C8005802FFFF2C01D4005802FFFFD9
:100450002C01EE00B004FFFF960038029600FA016E
:100460009600DD019600A90196007B0196006501CA
:1004700096003E0196001C019600FD009600EE00DD
:100480009600D4009600BD009600B30096009F0031
:100490009600FFFF58026501580265015802650188
:1004A0005802C301C2011C01960065015802C30134
:1004B000C2011C0196006501B004EE005802EE0076
:1004C0005802EE005802E100C2011C0196007B01B7
:1004D0005802DD01C2011C0196006501B004FFFF56
:1004E0005802DD01C800DD01C800DD01C80065015A
:1004F000B004EE00B004FD00C8001C01C8003E01BD
:10050000C800B300B004EE005802FD00C8001C0192
:10051000C8003E01C800B300B004EE005802FD0060
:10052000C8001C01C800FD00C8003E01B004010164
:1005300001010101010101010101010101010101AB
:100540000101010101010101010101010102020298
:100550000202020202020202020203030303030375
:10056000030303030404040404040404050505054B
:100570000505050606060606060607070707070718
:1005800008080808080809090909090A0A0A0A0ADC
:100590000B0B0B0B0B0C0C0C0C0D0D0D0D0D0E0E97
:1005A0000E0E0F0F0F0F101010101111111112124B
:1005B00012131313131414141515151516161617F4
:1005C0001717181818181919191A1A1A1B1B1B1C97
:1005D0001C1C1D1D1D1E1E1F1F1F20202021212130
:1005E00022222323232424242525262626272728C0
:1005F000282829292A2A2B2B2B2C2C2D2D2D2E2E49
:100600002F2F3030313131323233333434353536C7
:1006100036373738383939393A3A3B3B3C3C3D3D3F
:100620003E3E3F3F404141420101010101010101C4
:1006300001010101010101010101010101010101AA
:10064000010101010101010101010101010101019A
:100650000101010101010202020202020202020280
:100660000202020202020202030303030303030362
:100670000303030303030304040404040404040441
:10068000040404050505050505050505050506061B
:1006900006060606060606060707070707070707F2
:1006A00007080808080808080809090909090909C4
:1006B000090A0A0A0A0A0A0A0B0B0B0B0B0B0B0C92
:1006C0000C0C0C0C0C0C0D0D0D0D0D0D0E0E0E0E5C
:1006D0000E0E0F0F0F0F0F0F101010101010111122
:1006E00011111111121212121213131313131414E5
:1006F00014141414151515151516161616161717A5
:100700001717181818181819191919191A1A1A1A5E
:100710001B1B1B1B1B1C1C1C1C1D1D1D1D1E1E1E14
:100720001E1F01010101010101010101010101017E
:1007300001010101010101010101010101010101A9
:100740000101010101010101010101010101010199
:100750000101010101010101010102020202020283
:100760000202020202020202020202020202020269
:10077000020303030303030303030303030303034A
:10078000030303040404040404040404040404042C
:10079000040405050505050505050505050505060A
:1007A00006060606060606060606060707070707E4
:1007B00007070707070708080808080808080808BF
:1007C0000909090909090909090A0A0A0A0A0A0A92
:1007D0000A0A0B0B0B0B0B0B0B0B0B0C0C0C0C0C66
:1007E0000C0C0C0D0D0D0D0D0D0D0D0E0E0E0E0E37
:1007F0000E0E0E0F0F0F0F0F0F0F10101010101006
:1008000010111111111111111212121212121213D0
:1008100013131313131414141414141501010101E8
:1008200001010101010101010101010101010101B8
:1008300001010101010101010101010101010102A7
:100840000202020202020202020202020202030386
:100850000303030303030303030404040404040461
:100860000404040505050505050505060606060636
:100870000606070707070707070808080808080803
:100880000909090909090A0A0A0A0A0A0B0B0B0BCA
:100890000B0C0C0C0C0C0D0D0D0D0D0E0E0E0E0E8A
:1008A0000F0F0F0F0F101010101111111112121243
:1008B00012121313131314141414151515151616F8
:1008C0001617171717181818181919191A1A1A1AA3
:1008D0001B1B1B1C1C1C1C1D1D1D1E1E1E1F1F1F49
:1008E00020202020212121222222232323242424EA
:1008F00025252526262727272828282929292A2A81
:100900002A2B2B2C2C2C2D2D2D2E2E2F2F2F303013
:100910003131313232330409070003050806010280
:10092000010608050300070903080904000507027A
:10093000060106020705000409080A0D0A0D4865AC
:100940006C6C6F20576F726C64210A0D00FFFFFF03
:10095000FFFFFFFFFFFFFF01060207050004090874
:100960000303080904000507020601FFFFFFFFFF5C
:10097000FFFFFFFFFF0A0D2A2A2A205379737465AF
:100980006D20676F696E6720646F776E2E20506CE4
:100990006561736520646973636F6E6E656374204F
:1009A0002A2A2A000A0D0031352D4E4F562D32309D
:1009B0003138000A0D4669726D776172652056659F
:1009C0007273696F6E3A2000303132333435363706
:1009D00038390A0D0A0D203C205245504F52542000
:1009E000454E44203E0A0D004641494C00504153BB
:1009F00053000A0D57484954453A20004641494C96
:100A00000050415353000A0D424C55453A200046D0
:100A100041494C0050415353000A0D475245454E41
:100A20003A20004641494C0050415353000A0D52B0
:100A300045443A20000A0D0A0D205B2034205D2039
:100A40004C45447320434F4C4F5253202620425272
:100A5000494748544E455353004641494C00504184
:100A60005353000A0D42757A7A6572207465737467
:100A70003A20000A0D0A0D205B2033205D204255EC
:100A80005A5A45522026204D55534943000A0D20FD
:100A90003E20000A0D3120487A2074696D65733A52
:100AA000004641494C0050415353000A0D436C6FBE
:100AB000636B2054696D65723A20000A0D0A0D209F
:100AC0005B2032205D2054494D494E47202620436B
:100AD00052595354414C53004641494C2020202048
:100AE000202020200050415353202020202020206F
:100AF00020000A0D202D20565F687620202020201F
:100B0000207C20565F63746C5F726567207C205682
:100B10005F696E2020202020207C20565F64640ABC
:100B20000D202020000A0D203E20426F6F7374209C
:100B300044495341424C45443A004641494C2020E7
:100B4000202020202020005041535320202020200E
:100B5000202020000A0D202D20565F6876202020BE
:100B60002020207C20565F63746C5F726567207C58
:100B700020565F696E2020202020207C20565F6454
:100B8000640A0D202020000A0D203E20426F6F7362
:100B9000742044495341424C45443A000A0D2074A4
:100BA000657374204E6F2033004641494C2020204D
:100BB000202020202000504153532020202020209E
:100BC0002020000A0D202D20565F6876202020204E
:100BD00020207C20565F63746C5F726567207C20E8
:100BE000565F696E2020202020207C20565F6464A0
:100BF0000A0D202020000A0D203E20426F6F7374E2
:100C00002044495341424C45443A004641494C2016
:100C1000202020202020200050415353202020203D
:100C200020202020000A0D202D20565F68762020ED
:100C3000202020207C20565F63746C5F72656720E3
:100C40007C20565F696E2020202020207C20565F6B
:100C500064640A0D202020000A0D203E20426F6FA0
:100C600073742044495341424C45443A000A0D20D4
:100C700074657374204E6F2032004641494C202029
:100C800020202020202000504153532020202020CD
:100C9000202020000A0D202D20565F68762020207D
:100CA0002020207C20565F63746C5F726567207C17
:100CB00020565F696E2020202020207C20565F6413
:100CC000640A0D202020000A0D203E20426F6F7321
:100CD000742044495341424C45443A004641494CF2
:100CE000202020202020202000504153532020206D
:100CF0002020202020000A0D202D20565F6876201D
:100D000020202020207C20565F63746C5F72656712
:100D1000207C20565F696E2020202020207C2056D9
:100D20005F64640A0D202020000A0D203E20426FDF
:100D30006F73742044495341424C45443A000A0DB4
:100D40002074657374204E6F2031000A0D205B20E3
:100D500031205D2053595354454D20564F4C54413A
:100D6000474553004E6F206F66205465737473209F
:100D7000506572666F726D65643A2000202D2D2DCE
:100D80002D2D2D2D2D2D2D2D3E2050726573732070
:100D9000616E79206B657920746F20636F6E746962
:100DA0006E75650D0A0D0A002020202020202020CD
:100DB0002020202020202020202020202A2A5040CF
:100DC0002A4E4E2367455A674E4E402340502A2AEA
:100DD0000D0A00202020202020202020202020205C
:100DE0002020202A394E4E236749504E4C5F202A3E
:100DF00062402A205F324D2A4C67234E40462A0D1E
:100E00000A00202020202020202020202020202018
:100E1000392323675F3040715F5F20232A345F20CE
:100E2000206A2A2A6B205F5F2A4E465F6723405064
:100E30002A0D0A0020202020202020202020202AE7
:100E40004E4E685F202177235F2020203923672AB8
:100E5000202020202A6D2A2A2020205F232A2A20D1
:100E60005F644E402A0D0A002020202020202020F0
:100E700020204E4D5F302A2A675F206A2A2A397562
:100E80005F202067502020715F20205F7740205D29
:100E90005F205F672A2A465F67400D0A00202020F6
:100EA00020202020202A625F202A235F202020206B
:100EB0002A4E4C2020202020205F4223202020206A
:100EC00020205F494020202020206A232A205F2301
:100ED0002A0D0A00202020202020203923202A62E9
:100EE0005F6A2020202A625F20672A202020202A93
:100EF00067205F674620202020395F2067232A2053
:100F0000202A4C5F2A2A714E460D0A0020202020FC
:100F10002020605F30715F202020232A715F202015
:100F200020205F262A39705F202020205F672A60FA
:100F30004C5F202020205F2A2A232020206A41465F
:100F40002C2E0D0A002020202020206B604E202017
:100F500020202A71232020202020202039674020B3
:100F60002020202020202023674620202020202011
:100F70002023232A20202020232A6A0D0A00202053
:100F80002020207441706A462020396720204A2A98
:100F9000202020394D5F205F6D2A20202020392F0E
:100FA0005F205F2A2A2020202A2320206746202035
:100FB000395F6A4E460D0A002020202020236B2036
:100FC000206A46625F2020202067402A715F20202F
:100FD0002020205F2A2A396D5F20202020205F2AD0
:100FE0002A525F202020205F234E7020204A230DAC
:100FF0000A00202020202023462020604E4620206A
:101000002020202A23672A202020202020202A4D4B
:10101000642A20202020202020354E23202020203C
:10102000202039572A20206A230D0A002020202062
:1010300020304A20206B205F4020202039675F202D
:101040006A232A2020202A625F20206A232A202067
:10105000202A625F205F642A202020715F206720A1
:101060002023230D0A0020202020206A2070232026
:10107000202020672A395F202020202067402A393D
:101080005F20202020202067502A235F202020205E
:101090002067462A71202020205062204C0D0A0033
:1010A00020202020202046204E2A2020202023708F
:1010B0002A2020202020204E674020202020202091
:1010C000206023672A2020202020202A774020200B
:1010D00020202A2320740D0A002020202020202CEC
:1010E00046465F232A20395F205F232A20202A6278
:1010F0005F202067402020202A686720205F232A65
:10110000202021715F206A46202A2A5F30395F0D36
:101110000A00202020202020206A2320206741462A
:10112000202020205F404E4C20202020205F674060
:10113000235F2020202020204A40755F202020208F
:1011400032235F2020235F0D0A0020202020202052
:1011500020205F3046206A4C2A2A202020375F77E3
:10116000462020202020235F674620202020203991
:10117000676A462020202A624A202039685F0D0ACB
:10118000002020202020202020202067234D4620E2
:101190005F70502A4C20205F67402A394C5F202026
:1011A0005F672A2A235F5F2020672A39775F203014
:1011B0004E23700D0A0020202020202020202020F7
:1011C000205F6D4E23462020614D2A2020202023C1
:1011D000702A2020202021714020202020394E4CD0
:1011E000202A392351755F0D0A002020202020205D
:1011F00020202020202020205F67234030465F6190
:101200002A462320205F2A46396D5F202C46392A42
:101210005F5F394E4723675F0D0A002020202020A2
:1012200020202020202020202020205F5F77674E74
:101230004E402A422A502A2A6D702A2A4064232AC4
:10124000404E234E775F5F0D0A0020202020202093
:101250002020202020202020202020202020205F4F
:101260005F67676772674D2A2A4D236D6767675FFF
:101270005F0D0A000A0D203C3C2054455354204683
:10128000494E4953484544203E3E0A0D000A0D2070
:1012900023232320546573747320436F756E743A4F
:1012A00020000A0D20C2BF3F20436F6D6D616E6448
:1012B000206E6F74207265636F676E697A65642E45
:1012C00020506C6561736520747279206167616973
:1012D0006E0A0D000A0D202D204C45447320464116
:1012E000494C2120436865636B20736F6C646572A1
:1012F000206A6F696E7473206F72207265706C6102
:101300006365204C4544730A0D000A0D202D204CC6
:1013100045447320504153532E0A0D00204C6F6FEB
:101320006B7320676F6F643F20792F6E0A0D000A80
:101330000D203E2057484954452E000A0D203E20DE
:10134000424C55452E000A0D203E20475245454E41
:101350002E000A0D203E205245442E000A0D0A0D93
:10136000202820342029204C45447320434F4C4FE3
:1013700052532026204252494748544E4553530069
:101380000A0D20C2BF3F20436F6D6D616E64206EF9
:101390006F74207265636F676E697A65642E205082
:1013A0006C656173652074727920616761696E0A8A
:1013B0000D000A0D202D2042757A7A657220464173
:1013C000494C212E20506C656173652076657269E9
:1013D000667920736F6C646572696E6720616E64F4
:1013E000207265706C616365206966206E65636557
:1013F0007373617279000A0D203E20446F6573207B
:10140000697420736F756E6420676F6F643F207915
:101410002F6E0A0D000A0D203E20446F657320696F
:101420007420736F756E6420676F6F643F20792F2F
:101430006E0A0D000A0D0A0D2028203320292042B3
:10144000555A5A45522026204D5553494300202DC8
:10145000204641494C2100202D2050415353000A81
:101460000D206D73207065722052544320736563A4
:101470006F6E643A20000A0D203D3D3D3E204641FE
:10148000494C2120436C6F636B207369676E616CFC
:101490002068616C746564000A0D0A0D20282032F2
:1014A00020292054494D494E472026204352595364
:1014B00054414C530A0D000A0D626F6F7374206320
:1014C0006F6E76657274657220454E41424C45449C
:1014D000000A0D626F6F737420636F6E76657274AD
:1014E00065722044495341424C4544000A0D6368EB
:1014F00065636B2023002028203120292053595375
:1015000054454D20564F4C54414745530A0D000A4F
:101510000D507265737320616E79206B657920744C
:101520006F20657869740A0D000A0D0A0D203C20B1
:101530005245504F525420454E44203E000A0D68FB
:10154000697420454E54455220746F20636F6E7449
:10155000696E75652E2E2E0A0D000D0A54455354E2
:10156000204D4F444520454E5445524544002020CF
:10157000202020202020202020202020202020206B
:10158000202020202020202020202020202020205B
:101590002020202068456C6C4F20576F526C6421CE
:1015A00021210D0A000D0A002020202020202020CB
:1015B000202020202020202020202020202020202B
:1015C000202020202020202020202020424F474F74
:1015D00054C381202D20434F4C4F4D4249410D0AA9
:1015E000002020202020202020202020202020201B
:1015F00020202020202020202020202020202020EB
:1016000042494C49545249554D20544543484E4F48
:101610004C4F4749455320532E412E530D0A00206D
:1016200020202020202020202020202020202020BA
:1016300020202020202020202020202020202020AA
:101640002020202020202020202F0D0A00202020D4
:10165000202020202020202020202020202020208A
:10166000202020202020202020202020202020207A
:1016700020202020202020202F2F0D0A0020202095
:101680002020202020202020202020202F2F2F2F1E
:101690002F2F2F2F2F2F2F2F2F2F2F2F2F2F2F2F5A
:1016A0002F2F2F2F2F2F2F20202F2F2F2020202F95
:1016B0002F2F2F2F2F2F2F2F2F2F2F2F2F2F2F2F3A
:1016C0002F2F2F2F2F2F2F2F2F2F0D0A00202020CD
:1016D000202020202020202020202020202020200A
:1016E00020202020202020202020202020202020FA
:1016F000202020202020202020202F2F2F2F0D0AD7
:1017000000202020202020202F2F2F2F2F2F2F2F81
:101710002F2F2F2F2F2F2F2F2F2F2F2F2F2F2F2FD9
:101720002F2F2F2F2F2F2F2F2F2F2020202F2F2FF6
:101730002F2F2F2F20202F2F2F2F2F2F2F2F2F2FD7
:101740002F2F2F2F2F2F2F2F2F2F2F2F2F2F2F2FA9
:101750002F2F2F2F2F2F2F2F0D0A0020202020205A
:101760002020202020202020202020202020202079
:101770002020202020202020202020202020202069
:101780002020202020202020202F2F2F2F0D0A0066
:101790002F2F2F2F2F2F2F2F2F2F2F2F2F2F2F2F59
:1017A0002F2F2F2F2F2F2F2F2F2F2F2F2F2F2F2F49
:1017B0002F2F2F2F202020202020202020202020ED
:1017C0002F2F2F202020202020202F2F2F2F2F2F92
:1017D0002F2F2F2F2F2F2F2F2F2F2F2F2F2F2F2F19
:1017E0002F2F2F2F2F2F2F2F2F2F2F2F2F2F0D0A50
:1017F0000020202020202020202020202020202009
:1018000020202020202020202020202020202020D8
:1018100020202020202020202020202020202020C8
:101820002020202F2F0D0A002020202020202020E3
:1018300020202020202020202020202020202020A8
:101840002020202020202020202020202020202098
:101850002020202020202020202020202F0D0A00C2
:101860000D0A0D0A00202D204641494C212121005E
:10187000202D205041535300202D204641494C211A
:10188000212100202D205041535300202D2046417E
:10189000494C21212100202D205041535300202D5F
:1018A000204641494C21212100202D2050415353F5
:1018B0000030002C000D0A2D20564444207261692E
:1018C0006C20766F6C746167653A20000D0A2D20DC
:1018D000496E70757420766F6C746167653A20008C
:1018E0000D0A2D20426F6F737420636F6E74726FD8
:1018F0006C6C657220726567756C61746F722076AE
:101900006F6C746167653A20000D0A2D2048696785
:101910006820566F6C746167653A20000A0D574164
:10192000524E494E4721202D20496E707574207605
:101930006F6C74616765206F7574206F66207261CB
:101940006E6765000A0D574152494E4721202D20F0
:10195000426F6F737420636F6E74726F6C6C65721C
:1019600020726567756C61746F7220766F6C74613C
:101970006765206F7574206F662072616E67650001
:101980000A0D574152494E4721202D20426F6F7357
:101990007420766F6C74616765206F7574206F6654
:1019A0002072616E6765000A0D53595354454D20EE
:1019B000564F4C54414745533A0011241FBECFEFB8
:1019C000D8E0DEBFCDBF11E0A0E0B1E0EEE0F1E78E
:1019D00002C005900D92A833B107D9F722E0A8E321
:1019E000B1E001C01D92A538B207E1F70E9456246C
:1019F0000C9485380C94000080E00E944C3280E00A
:101A00000E949A0F6EEE70E080E00E941E3120E08E
:101A100040E060E080E00E943E3180E00E940231C0
:101A200080E00E94122280913C02811102C00E943B
:101A30007A30289885B18F7185B984B1806E84B968
:101A400080E00E94612D8FEF0E94752D0895289AE5
:101A500084B18F7184B985B1806E85B981E00E94AF
:101A60004C3281E00E949A0F81E00E94023181E0B5
:101A70000E94122281E00E947A302A980895809173
:101A80003C02813021F48AE191E00E94700F0E94B3
:101A9000FC0C43C083B7817F846083BF08C0809102
:101AA0003C02813021F483B7817F866083BF83B796
:101AB000816083BF85B7806685BF8F7D85BF789441
:101AC000889583B78E7F83BFF894329B26C081E0D0
:101AD00080933C020E94270D88E291E00E94700FE3
:101AE0002FEF84E39CE0215080409040E1F700C05C
:101AF00000000E948A32811106C081E080933B027F
:101B00008DE090E0089580916502811103C081E02D
:101B100090E0089588E090E0089580913C02882349
:101B200009F4B8CFBCCF6EEE70E081E00E941E31A8
:101B300087E99AE30197F1F700C000006EEE70E0CC
:101B400080E00E941E310895AF92BF92CF92DF9243
:101B5000EF92FF920F931F93CF93DF93662309F4C5
:101B6000E7C090910001992309F493C010920001FD
:101B700010920602109205021092040210920302C3
:101B800090E0FC013A97EF31F10508F051C0EA59B5
:101B9000FF4F0C94CA3586E594E09093020280933F
:101BA00001028FE08093000268ECCDC08EED94E0DE
:101BB000909302028093010284E1809300026CE61C
:101BC000C2C082E994E0909302028093010283E113
:101BD000809300026CE6B7C082E293E09093020229
:101BE000809301028DE48093000268ECACC086E033
:101BF00093E0909302028093010287E080930002B9
:101C000068ECA1C086E092E090930202809301020A
:101C100080E48093000266E996C08AE391E09093A5
:101C200002028093010283E3809300026AE58BC085
:101C3000A0900002AA2069F160E070E080E090E0EE
:101C40000E94F2369B01AC0160E070E088EC92E407
:101C50000E9451366B017C01C0910102D0910202B9
:101C6000229608E311E0B12CFE016591749180E0A9
:101C700090E00E94F236A70196010E94A9370E94C7
:101C8000C336F801619371938F01B3942496BA140B
:101C900058F380910402E82FF0E0EE0FFF1FE85C9C
:101CA000FE4F408151812091050230910602241798
:101CB000350720F121E0280F2093040280910102D2
:101CC00090910202F4E02F9F800D911D1124FC01E0
:101CD000259134912F3F3F4F39F0FC01659174916C
:101CE00081E00E941E3106C0FC016591749180E084
:101CF0000E941E3110920602109205029091040279
:101D000080910002981750F06EEE70E080E00E9423
:101D10001E3181E0809300018093030280910502CF
:101D2000909106020196909306028093050208C0E6
:101D300081E0809300016FEF7FEF80E00E941E3111
:101D40008091030203C0A090000277CFDF91CF9172
:101D50001F910F91FF90EF90DF90CF90BF90AF90C9
:101D60000895089809980A980B98519A509A6D9A74
:101D70000C9A5998589875981498529A3B9A3D9A8B
:101D80000F9A0E9A0D9A539A549A579A569A5A98AD
:101D9000439845981798169815985B985C985F98A3
:101DA0005E98229A2A9A3C9A4498239A249A559AA1
:101DB0002B982C985D982598269827982D9A2E9ADE
:101DC0002F9A3A98389A399A409A419A6A986B9A17
:101DD000739A209A2898219A2998E9E7F2E01082CC
:101DE00011828CE0828313821482158216821782FC
:101DF0001086118622E122879AEA9387E9E5F2E0CC
:101E0000108211828283138214821582168282E0EC
:101E1000878381E0808721879287138614869EE1DD
:101E20009587EFE4F2E094EE9083118212821382A0
:101E30001482858385E08683878380878187E0E7B6
:101E4000F2E01082118212828EEE83831582148258
:101E5000168217821086E7E6F2E010821182128263
:101E6000838315821482168217821086E6E4F2E0DC
:101E70001082118212828383158214821682178245
:101E800010860E94D40F0E94E3300E94B8300E9456
:101E9000CE300E943E320E94500F0E9402220895CE
:101EA0001092D50089E18093D400E0EDF0E08081CC
:101EB00082608083E2EDF0E08081877080838081A2
:101EC000866080830895E0EDF0E0908195FFFDCF7E
:101ED0008093D600E0EDF0E0808185FFFDCF08958E
:101EE000CF93DF93EC018881882331F021960E9403
:101EF000630F89918111FBCFDF91CF910895CF932B
:101F0000DF93EC01FC018491882349F0FE01849168
:101F10000E94630F2196FE0184918111F7CFDF911A
:101F2000CF910895E0EDF0E080818823ECF7809177
:101F3000D6000895882391F0E1EDF0E0808188617A
:101F400080838091D000882374F4A6EDB0E0E0EDAA
:101F5000F0E08C9180818823E4F30895E1EDF0E0D6
:101F60008081877E8083089562990CC080E0089507
:101F700083EF91E00197F1F700C0000081E0089540
:101F800080E0089583EF91E00197F1F700C0000031
:101F9000629BF6CF83EF91E00197F1F700C000005C
:101FA0006299E6CF80E00895CF93DF93CDB7DEB797
:101FB00068970FB6F894DEBF0FBECDBF85E290E004
:101FC0000E945B388A3A79F16AEA85E290E00E94E1
:101FD000733860E084E290E00E94733860E084E04F
:101FE00090E00E947338FE013196CE01499611921D
:101FF000E817F907E1F748E150E06CE070E0CE0146
:1020000001960E94633847E050E065E070E0CE0141
:1020100001960E94633844E050E060E070E0CE0139
:1020200001960E94633868960FB6F894DEBF0FBE23
:10203000CDBFDF91CF910895CF9384E290E00E94CD
:102040005B38C1E0C80F6C2F84E290E00E947338C7
:102050008C2FCF91089584E290E00E945B38089520
:10206000AF92BF92CF92DF92EF92FF920F931F93A6
:10207000CF93DF93A62EB72EC42ED52E7C010CE075
:1020800010E0C4E1D0E0F70181917F01813029F4B3
:102090006AEAC8010E94733804C06BEBC8010E9451
:1020A00073380F5F1F4F0C171D0769F7EA2CFB2CC5
:1020B0000CE110E0F70181917F01813029F46AEA97
:1020C000CE010E94733804C06BEBCE010E947338BE
:1020D0002196C017D10771F7CC2DDD2D0F2EF4E21C
:1020E000EF2EF0E0FF2EF02D8991813029F46AEA7D
:1020F000C8010E94733804C06BEBC8010E9473389A
:102100000F5F1F4F0E151F0579F7DF91CF911F91BC
:102110000F91FF90EF90DF90CF90BF90AF90089518
:10212000CF93DF93EB01882331F06AEA85E090E0FA
:102130000E94733805C06BEB85E090E00E94733815
:1021400046E050E066E070E0CE010E946338DF9127
:10215000CF910895882331F06AEA84E090E00E94EC
:10216000733808956BEB84E090E00E947338089513
:10217000EF92FF920F931F93CF93DF938C01C0E0F8
:10218000D0E00F2EF4E0EF2EF0E0FF2EF02DF8015E
:1021900081918F01813029F46AEACE010E9473385F
:1021A00004C06BEBCE010E9473382196CE15DF057B
:1021B00071F7DF91CF911F910F91FF90EF900895EC
:1021C00048E150E06CE070E00E944B38089585E0F3
:1021D00090E00E945B38089546E050E066E070E0D1
:1021E0000E944B38089584E090E00E945B38089587
:1021F00044E050E060E070E00E944B380895209188
:102200007B02FC01328132130EC020917A023181AF
:1022100032130BC0209179028081821308C081E0C3
:1022200080936502089580E0089580E0089580E03D
:1022300008958231D1F5809162028231E9F4809172
:102240005B028B3079F4E9E5F2E08CE082838285F1
:102250008A3A21F48FEF809363024DC08AEA80931B
:10226000630240C08C3021F481E080935B0236C071
:102270008F5F80935B0232C0843281F580915B0274
:102280008B3039F4E9E5F2E08CE082838FEF8287CE
:1022900032C0873131F4E9E5F2E012828AEA8287BE
:1022A00021C08F5F80935B0219C0833159F4809104
:1022B0005A028B3319F410925A0210C08F5F809328
:1022C0005A020CC0843151F4809159028B3319F4B5
:1022D0001092590203C08F5F80935902809163026C
:1022E0008A3A39F420E046E960E081E00E943E311C
:1022F00008958F3F31F426E940E060E081E00E94DC
:102300003E310895CF93DF93EC018091070188233C
:10231000C9F010920701EFE4F2E081E0858385E0E7
:1023200086838783808781878FEF818382838383FE
:1023300010921D0210921C0222E342E360E081E051
:102340000E943E3180916402882321F091E09093B5
:10235000530202C010925302E0911B02EE2321F0BF
:1023600091E09093540202C0109254029091710235
:102370009923C1F0909173029A3A09F061C090914B
:10238000760291115DC01092710291E09093070165
:10239000C3E0D0E007C01092710291E09093070172
:1023A000C2E0D0E090916802992321F090916D02F3
:1023B000992341F090914702992399F090914C0212
:1023C00091110FC0109268021092470291E0892784
:1023D0008093640281E090E090931D0280931C0240
:1023E00034C040911C0250911D024F5F5F4F5093CB
:1023F0001D0240931C029A01369527953695279524
:10240000ABE7B4E10E94D0359695879564E6689F66
:102410009001699F300D112442175307B1F481E0F8
:10242000E827E0931B024033554778F010921D02D5
:1024300010921C0281E080930701C3E0D0E005C048
:10244000909178029111A7CFADCFCE01DF91CF91BE
:102450000895CF93DF93EC0180910601882341F129
:1024600010920601EFE4F2E091E0958381EE809313
:10247000050185E0868387838087818710921A0211
:102480001092190290930401809163028A3A39F400
:1024900020E046E960E081E00E943E3109C08F3FC4
:1024A00009F044C026E940E060E081E00E943E314E
:1024B00080910501803E21F0813E09F059C02CC079
:1024C00080911802811104C0809149028D3DA1F4D0
:1024D000A9E5B2E018968C911897EFE4F2E08183B9
:1024E00017968C911797828316968C9116978383F3
:1024F00015968C9184833CC080910401882331F02F
:10250000EFE4F2E08FEF8183828332C0EFE4F2E008
:102510008FEF838384832CC08091190290911A02DB
:102520006EE170E00E94A235892B11F5EFE4F2E034
:102530008681815086838781815087838085815001
:1025400080878185815081878681811111C0109299
:102550001A02109219028FEF81838283838384830E
:1025600085E0868387838087818780EE809305015D
:10257000809171028823C1F0809173028A3A09F038
:1025800097C080917602811193C01092710281E010
:1025900080930601C3E0D0E007C01092710281E091
:1025A00080930601C2E0D0E0809168028823A9F000
:1025B00080916D02811111C0109268029091040106
:1025C00081E089278093040110921A021092190267
:1025D00080914702811105C070C080914702882315
:1025E000B1F1809149028A3A91F4809104018823E3
:1025F00031F082E10E9419110E94EC2F05C083E1A5
:102600000E9419110E94EC2F1092470219C080916C
:102610004C028823A9F080914D02882389F0109202
:102620004D0280910401882331F082E10E9419114A
:102630000E94EC2F05C083E10E9419110E94EC2F2B
:1026400081E090E090931A02809319023CC040917F
:10265000190250911A024F5F5F4F50931A02409334
:1026600019029A013695279536952795ABE7B4E17F
:102670000E94D0359695879564E6689F9001699F82
:10268000300D112442175307F1F49091180281E0A4
:1026900089278093180240335547A8F010921A02F8
:1026A0001092190281E080930601C3E0D0E00BC0D4
:1026B00080917802811171CF77CF81E090E0909383
:1026C0001A0280931902CE01DF91CF910895CF9322
:1026D000DF93EC0180910301882309F471C010920B
:1026E0000301EFE4F2E091E0958385E08683878340
:1026F000808781871092170210921602109215029D
:10270000109214029093020110921302109212027E
:10271000EFE0F2E0108280915A0295E0980F9183E9
:102720009C33F8F099EC980F90931002909162020C
:10273000943259F490915B02973119F4109211027E
:1027400014C09F5F9093110210C090915B029C3067
:1027500021F491E09093110208C09F5F90931102C1
:1027600004C090915B0290931102ECE0F2E01082C1
:102770009AE0980F91839C33F0F0825380930D027E
:1027800080916202843259F480915B02873119F49E
:1027900010920E0236C08F5F80930E0232C080917D
:1027A0005B028C3021F481E080930E022AC08F5F9F
:1027B00080930E0226C080915B0280930E0221C09E
:1027C00040911602509117029A0136952795369539
:1027D0002795ABE3BDE60E94D035969587959295F7
:1027E00082958F7089279F7089276CE271E0869FA0
:1027F0009001879F300D969F300D1124421753078B
:10280000A9F490910B0281E0892780930B02882321
:1028100039F020E04AE06AEF81E00E943E3106C0D4
:1028200020E04AEF6AE081E00E943E31A9E7B2E091
:1028300018968C911897EFE4F2E0818317968C91AB
:102840001797828316968C911697838315968C9191
:10285000848380911302882321F0813009F447C0DA
:1028600098C08091140290911502019690931502E0
:102870008093140280369A4EC8F4809171028823A6
:1028800021F080917802882389F080916802882362
:1028900021F080916F02882349F0809147028823BC
:1028A00009F477C080914E02811173C010927102B9
:1028B00010926802109247021092150210921402B0
:1028C0001092020180911202823020F491E09093E4
:1028D000130209C0823039F41092650291E090939E
:1028E0000301C2E0D0E08F5F8093120252C080915A
:1028F0008202882339F11092820280911202813083
:1029000081F48FE092E00E94FF108823D9F01092AA
:10291000130281E0809302011092150210921402BA
:1029200011C0823079F48CE092E00E94FF1088237D
:1029300049F01092130281E0809302011092150277
:102940001092140280917102882321F08091780204
:10295000882381F080916802882321F080916F02A2
:10296000882341F080914702882399F080914E029C
:1029700081110FC0109271021092680210924702EA
:10298000109265021092020181E080930301C2E07F
:10299000D0E040911602509117029A013695279582
:1029A00036952795ABE7B4E10E94D035969587958B
:1029B00064E6689F9001699F300D11244217530708
:1029C00031F490910A0281E0892780930A024F5FD7
:1029D0005F4F50931702409316026091020180915D
:1029E00066020E94A40DCE01DF91CF910895CF938E
:1029F000DF93EC01809101018823C9F0109201015D
:102A0000EFE4F2E081E0858385E086838783808739
:102A100081878FEF818382838383109209021092D2
:102A2000080222E342E362E381E00E943E318091AA
:102A30000702882361F1809166028E3121F481E0E2
:102A40008093530227C08A3021F482E0809353029E
:102A500021C08F3021F483E0809353021BC0843166
:102A600021F484E08093530215C0893121F485E07C
:102A7000809353020FC0883221F486E08093530282
:102A800009C0833239F487E08093530203C08FEF8B
:102A90008093530261E0809166020E94A40D8091B0
:102AA0006802882309F47AC080916D02811176C092
:102AB00010926802809166028E3121F483E2809345
:102AC000660223C08A3021F48EE1809366021DC025
:102AD0008F3021F48AE08093660217C0843121F49C
:102AE0008FE08093660211C0893121F484E18093E4
:102AF00066020BC0883221F489E18093660205C02A
:102B0000833219F488E28093660260E08091660265
:102B10000E94A40D1092090210920802809168028E
:102B2000882309F4AAC080916D02811137C01092E8
:102B30004702809166028E3121F48AE0809366021A
:102B400023C08A3021F48FE0809366021DC08F304D
:102B500021F484E18093660217C0843121F489E175
:102B60008093660211C0893121F488E28093660265
:102B70000BC0883221F483E28093660205C0833261
:102B800019F48EE18093660260E0809166020E94F3
:102B9000A40D10920902109208026FC08091710278
:102BA000882359F1809173028A3AA1F480917602C8
:102BB000811110C0C0E7D2E0198281E08093010149
:102BC00060E0809166020E94A40D8981882399F0BB
:102BD000C3E0D0E080917802882379F010927102EE
:102BE00081E08093010160E0809166020E94A40D63
:102BF000C2E0D0E002C0C3E0D0E0409108025091B2
:102C000009024F5F5F4F50930902409308029A01F7
:102C10003695279536952795ABE7B4E10E94D035D8
:102C20009695879564E6689F9001699F300D112401
:102C30004217530739F59091070281E08927809365
:102C4000070240335547F0F060E0809166020E9431
:102C5000A40D109209021092080281E080930101F4
:102C6000C3E0D0E00FC08091080290910902019664
:102C7000909309028093080205C08091710281112E
:102C800091CFF1CFCE01DF91CF910895823109F03C
:102C900046C080918302823111F580917B028B3096
:102CA00081F4E9E7F2E082818F5F828383858A3A4B
:102CB00021F48FEF809384024FC08AEA80938402CC
:102CC0004BC080917B028C3021F481E080937B02A9
:102CD00043C0E9E7F2E082818F5F82833DC080914B
:102CE00083028432C9F580917B028B3041F4E9E79D
:102CF000F2E082818F5F82838FEF83872DC0809186
:102D00007B02873131F4E9E7F2E012828AEA8387B5
:102D100023C0E9E7F2E082818F5F82831DC08331A7
:102D200069F480917A028B3319F410927A0214C0FC
:102D3000E9E7F2E081818F5F81830EC0843161F425
:102D4000809179028B3319F41092790205C0E9E77A
:102D5000F2E080818F5F8083809184028A3A39F427
:102D600020E04EE162E381E00E943E3108958091CF
:102D700084028F3F31F421E444E164E181E00E9468
:102D80003E310895EF92FF920F931F93CF93DF93FD
:102D90007C0180910F01882379F110920F0110922C
:102DA0003102CFE4D2E081E08D8320E040E060E0BA
:102DB0000E943E311092300210922F0210922E0289
:102DC00010922D0210922C0210922B0288EE80930A
:102DD0000E0110922A0210922902109228021092DB
:102DE0000D0185E08E838F83888789878D8181306F
:102DF00009F0E7C00C94041F80915402813009F05F
:102E0000E0C080910E01873E09F4C6C080910C019C
:102E10008B3B09F0A0C080910D018823F9F08091CF
:102E20002802909129028B3C27E0920758F40196E2
:102E300090932902809328028091820281110C9440
:102E4000E41E3DC08BEC97E090932902809328020A
:102E5000809182028111B8C70C94281F80912802AA
:102E6000909129028630910538F0019790932902BC
:102E7000809328020C94171F85E090E0909329021C
:102E8000809328020C94171F8091790280FF17C04D
:102E900010920D0187EB97E090932902809328020E
:102EA0009EC78091790280FF0AC081E080930D0166
:102EB00089E190E0909329028093280290C7409185
:102EC0002802509129029A01ADECBCEC0E94D03549
:102ED00096958795969587959C01220F331F220F13
:102EE000331F820F931F4817590709F070C02091B4
:102EF0008402CA01969587959695879596958795AC
:102F00002A3A31F4FC01FF27E45EF74F649105C0D3
:102F1000FC01FF27EE5DF84F6491209184022A3A6C
:102F200031F4FC01FF27E85DF94F449105C0FC0135
:102F3000FF27EE5DF84F4491209184022A3A31F048
:102F40009927FC01E25DFA4F249101C020E081E065
:102F50000E943E313CC08E3EB1F4809184028A3A98
:102F600039F420E04EE162E381E00E943E312FC05F
:102F7000809184028F3F59F521E444E164E181E0CE
:102F80000E943E3124C08F3F11F520E040E060E018
:102F900080E00E943E311BC0809163028A3A39F47E
:102FA00020E046E960E081E00E943E3110C08F3FA2
:102FB00009F01AC726E940E060E081E00E943E3156
:102FC00006C020E040E060E080E00E943E31809159
:102FD000790281112FC080912A0281112BC081E0DA
:102FE00080932A0220917A028DEC289F812D112452
:102FF000869586958695880F982F990F990F890F3A
:1030000028130CC080917A02882321F085EE8093EA
:103010000E0108C086EE80930E0104C080914F021D
:1030200080930E0110922E0210922D0210922C020B
:1030300010922B02E0910E018E2F90E0FC01E05ED9
:10304000F109EA30F10508F0F8C5EB57FF4F0C9491
:10305000CA3580917902811110922A02A9E7B2E063
:1030600018968C911897EFE4F2E0818317968C9173
:103070001797828316968C911697838315968C9159
:103080008483DBC580913102811122C0109230020D
:1030900010922F02EFE4F2E08181A4E2B2E08C937F
:1030A000828111968C931197838112968C9312973B
:1030B000848113968C938FEF8183828383838483AF
:1030C00081E0868387838087818780933102B5C5BD
:1030D000813009F056C040912F02509130029A0180
:1030E00036952795ABE7B4E10E94D0359695879544
:1030F00062E3689F9001699F300D112442175307C6
:1031000069F404E212E0D80113968C910E946130B8
:10311000EFE4F2E084838481E8018B8340912F0205
:10312000509130029A01ADECBCEC0E94D035880F72
:10313000892F881F990B919560EA689F9001699F7C
:10314000300D11244217530749F4809158028530FD
:1031500028F4EFE4F2E081858F5F818741325340AC
:1031600008F46BC5EFE4F2E085E0818780917E0290
:1031700084831092300210922F0282E080933102F9
:103180005CC5823009F056C040912F025091300248
:103190009A0136952795ABE7B4E10E94D035969514
:1031A000879562E3689F9001699F300D1124421753
:1031B000530769F404E212E0F80182810E94613051
:1031C000EFE4F2E083838381D80112968C934091DF
:1031D0002F02509130029A01ADECBCEC0E94D03528
:1031E000880F892F881F990B919560EA689F90013D
:1031F000699F300D11244217530749F480915702FB
:10320000853028F4EFE4F2E080858F5F80874132DB
:10321000534008F412C5EFE4F2E085E08087809126
:103220007F0283831092300210922F0283E08093FA
:10323000310203C5833009F054C040912F025091F0
:1032400030029A0136952795ABE7B4E10E94D0355C
:103250009695879562E3689F9001699F300D1124D0
:103260004217530759F404E212E0E80189810E94F1
:103270006130EFE4F2E082838281898340912F0202
:10328000509130029A01ADECBCEC0E94D035880F11
:10329000892F881F990B919560EA689F9001699F1B
:1032A000300D11244217530749F48091560285309E
:1032B00028F4EFE4F2E087818F5F87834132534047
:1032C00008F4BBC4EFE4F2E085E0878380918002DC
:1032D00082831092300210922F0284E08093310298
:1032E000ACC4843009F0A9C440912F02509130023F
:1032F0009A0136952795ABE7B4E10E94D0359695B3
:10330000879562E3689F9001699F300D11244217F1
:10331000530761F404E212E0F80180810E946130F9
:10332000EFE4F2E081838181D8018C9340912F02F8
:10333000509130029A01ADECBCEC0E94D035880F60
:10334000892F881F990B919560EA689F9001699F6A
:10335000300D11244217530749F4809155028530EE
:1033600028F4EFE4F2E086818F5F86834132534098
:1033700008F463C48091810280935002109230025D
:1033800010922F021092310280EE80930E0155C4EC
:103390008091310281110FC01092300210922F02E1
:1033A000EFE4F2E085E0868387838087818781E090
:1033B0008093310242C48130E9F540912F0250914F
:1033C00030029A0136952795ABE7B4E10E94D035DB
:1033D0009695879562E3689F9001699F300D11244F
:1033E0004217530799F40FE412E0E80189810E9423
:1033F000613089838A810E9461308A838B810E9437
:1034000061308B838C810E9461308C8380912F028C
:10341000909130028132934008F40FC480917E0273
:10342000809353021092300210922F0282E0809318
:10343000310203C48230F1F540912F0250913002E5
:103440009A0136952795ABE7B4E10E94D035969561
:10345000879562E3689F9001699F300D11244217A0
:103460005307A1F40FE412E0F80181810E9461305A
:10347000D80111968C93119712968C910E9461300D
:10348000E8018A838B810E9461308B8380912F02B7
:10349000909130028132934008F4CFC380917F0233
:1034A000809352021092300210922F0283E0809398
:1034B0003102C3C38330D1F540912F0250913002C5
:1034C0009A0136952795ABE7B4E10E94D0359695E1
:1034D000879562E3689F9001699F300D1124421720
:1034E000530781F40FE412E0F80181810E946130FA
:1034F000D80111968C93119712968C910E9461308D
:10350000E8018A8380912F029091300281329340AA
:1035100008F493C38091800280935102109230028C
:1035200010922F0284E08093310287C3843009F027
:1035300084C340912F02509130029A01369527950D
:10354000ABE7B4E10E94D0359695879562E3689F1A
:103550009001699F300D11244217530749F40FE47D
:1035600012E0F80181810E946130D80111968C939C
:1035700080912F02909130028132934008F45DC314
:1035800080918102809350021092300210922F029B
:103590001092310280EE80930E014FC38091310270
:1035A000811132C01092300210922F0210922E021E
:1035B00010922D0210922C0210922B028FE492E0B6
:1035C000EC01E981F0E0EA5EF64FE491A4E2B2E0BA
:1035D000EC93EA81F0E0EA5EF64FE4911196EC9309
:1035E0001197EB81F0E0EA5EF64FE4911296EC93CE
:1035F0001297EC81F0E0EA5EF64FE4911396EC93BB
:1036000081E08093310219C3813009F016C38091A3
:103610002D0290912E0220912402FC01E20FF11D57
:10362000E231F10530F0EA5EF64FE491E0935002AA
:1036300005C0E85DF64FE491E09350022091250229
:10364000FC01E20FF11DE231F10530F0EA5EF64FC8
:10365000E491E093510205C0E85DF64FE491E093F8
:10366000510220912602FC01E20FF11DE231F10529
:1036700030F0EA5EF64FE491E093520205C0E85D57
:10368000F64FE491E093520220912702FC01E20FF1
:10369000F11DE231F10530F0EA5EF64FE491E0937E
:1036A000530205C0E85DF64FE491E0935302409168
:1036B0002B0250912C0264E1649F9001659F300DB4
:1036C0001124225E3F4F60912F02709130026217E9
:1036D000730708F4B2C21092300210922F020196C2
:1036E0008231910528F490932E0280932D02A5C279
:1036F00010922E0210922D024F5F5F4F50932C02BA
:1037000040932B024430510509F097C210923102C8
:1037100080EE80930E0191C280917A02813041F057
:1037200080917A02843021F080917A02873021F4EE
:1037300081EE80930E0181C280917A02823041F045
:1037400080917A02853021F080917A02883021F4CC
:1037500082EE80930E0171C283EE80930E016DC2E2
:1037600020913102211115C081E090E090932E024A
:1037700080932D021092300210922F02EFE4F2E0BB
:1037800085E0868387838087818781E0809331020B
:1037900054C28FEF820F823008F04FC280912D0209
:1037A00090912E0264E670E0681B790B80912F02E5
:1037B000909130020E94A235892B19F5213089F4AD
:1037C0000FE412E0F80181810E946130D801119666
:1037D0008C93119713968C910E946130E8018B8332
:1037E00010C00FE412E0F80182810E946130D8011C
:1037F00012968C93129714968C910E946130E80176
:103800008C8380912F029091300260912D027091F3
:103810002E020E94A235892B29F580913102813038
:1038200089F40FE412E0F80182810E946130D8012E
:1038300012968C93129714968C910E946130E80135
:103840008C8310C00FE412E0F80181810E94613086
:10385000D80111968C93119713968C910E94613028
:10386000E8018B8340912F02509130029A013695E6
:103870002795ABE7B4E10E94D0359695879562E332
:10388000689F9001699F300D11244217530709F07A
:10389000D4C180912D0290912E020196833691051C
:1038A00029F090932E0280932D02C7C181E090E011
:1038B00090932E0280932D021092300210922F02CC
:1038C00080913102813021F482E080933102B5C1D0
:1038D0001092310280EE80930E01AFC180913102CF
:1038E000811119C0EFE4F2E085E086838783808749
:1038F00081871092300210922F0286E990E0909317
:103900002E0280932D0210922C0210922B0281E045
:103910008093310292C1813009F045C080912D021F
:1039200090912E0220912F023091300228173907F2
:1039300008F483C120912B0230912C022F5F3F4F5E
:103940002231310528F430932C0220932B0204C03D
:1039500010922C0210922B02E0912B02F0912C027B
:10396000E85DF64F2491EFE4F2E021832181228388
:1039700021812383218124831092300210922F020F
:1039800003978031910528F090932E0280932D02A9
:1039900054C18FE090E090932E0280932D0282E03C
:1039A000809331024AC1823009F042C040912F0217
:1039B000509130029A01A9E8B8E80E94D035969556
:1039C000879596958795969587956FE0689F900166
:1039D000699F300D11244217530709F02EC18091C1
:1039E0002B0290912C0201968231910528F490933C
:1039F0002C0280932B0204C010922C0210922B02F6
:103A0000E0912B02F0912C02E85DF64F8491EFE4F7
:103A1000F2E08183818182838181838381818483B8
:103A2000403D574008F409C183E08093310205C14D
:103A3000833009F002C180912D0290912E022091D5
:103A40002F02309130022817390708F4F6C0209170
:103A50002B0230912C022F5F3F4F2231310528F489
:103A600030932C0220932B0204C010922C0210924F
:103A70002B02E0912B02F0912C02E85DF64F24918D
:103A8000EFE4F2E0218321812283218123832181BC
:103A900024831092300210922F02039686399105EA
:103AA00028F490932E0280932D02C7C010922E020C
:103AB00010922D021092310280EE80930E01BDC053
:103AC0008091310281111BC01092300210922F029E
:103AD000A9E5B2E018968C911897EFE4F2E08183A3
:103AE00017968C911797828316968C9116978383DD
:103AF00015968C91848381E0809331029EC0813041
:103B000009F09BC080912F0290913002893B9B402D
:103B100008F493C01092300210922F0210923102DA
:103B200080EE80930E0189C040912F0250913002A7
:103B30009A01ADECBCEC0E94D035929582958F70C5
:103B400089279F70892764E1689F9001699F300DE4
:103B500011244217530709F070C090913102E92FE8
:103B6000F0E0E15BFD4F8681815086838681811183
:103B700064C09F5F943018F4909331025EC010923D
:103B800031021092300210922F020E94930DEFE446
:103B9000F2E08FEF818382838383848385E0868351
:103BA00087838087818780EE80930E0146C0409195
:103BB0002F02509130029A01ADECBCEC0E94D0353E
:103BC000929582958F7089279F70892764E1689FFD
:103BD0009001699F300D11244217530771F59091A0
:103BE0003102E92FF0E0E15BFD4F86818150868351
:103BF0008681811122C09F5F943018F49093310226
:103C00001CC0109231021092300210922F020E94BA
:103C1000930DEFE4F2E08FEF8183828383838483CB
:103C200085E0868387838087818781E080930F0189
:103C30000F2EF3E0EF2EF12CF02D809171028823EE
:103C4000A9F180917802882309F4D3C08091680299
:103C50008111CFC0809147028111FFC01092710283
:103C600080915402882349F080910E01803E09F032
:103C70004DC089EE80930E0149C081E080935402CB
:103C800045C080917602811111C01092710280911D
:103C90005402882341F080910E01803E39F4EE24D5
:103CA000E394F12C03C081E0809354028091470299
:103CB000882361F1809149028A3A41F580914C0252
:103CC000811124C010924702809154028823D9F0B8
:103CD00080910C018B3B21F48EEE80930C0116C079
:103CE0008E3E21F48FEF80930C0110C08F3F71F452
:103CF0008BEB80930C01109229021092280281E034
:103D000080930D0103C081E080935402809168028A
:103D1000882349F180916A028A3A09F070C0809143
:103D20006D0281116CC01092680280915402882348
:103D300041F080910E01803EB1F487EE80930E0138
:103D400012C081E0809354020EC0809171028111F3
:103D50007AC080914702811186C010926802109249
:103D600054020E94930D80917102882309F47BC054
:103D700080917802882309F476C0809168028823B4
:103D800009F471C080916F02882309F46CC080919E
:103D90004702882309F467C080914E02882309F402
:103DA00062C0109271021092680210924702109243
:103DB000540281E080933B0280930F010F2EFDE0BF
:103DC000EF2EF12CF02D4FC010928202809128022C
:103DD00090912902893E934008F056C870C84091DE
:103DE00028025091290283C880917902882329F101
:103DF00067CE809173028A3A09F058CF42CF809102
:103E00006F028111A2CFAFCF80910C018B3B09F0E3
:103E1000A2C80C942E1710928202809128029091D1
:103E20002902883E934010F40C94511748C88091A1
:103E300082028111F0CF0C945F1780912A028823AF
:103E400009F4CDC83DCE8091780281119BCF0BC083
:103E500040912802509129024AC8809173028A3AFF
:103E600009F028CF0ECF80912F0290913002019659
:103E70009093300280932F02C701DF91CF911F9161
:103E80000F91FF90EF900895CF93DF93EC01809115
:103E90000B01882319F110920B0181E080935402E9
:103EA00090EE90930A0110922302109222028093C6
:103EB0000901809184028A3A39F420E04EE162E3FC
:103EC00081E00E943E310AC0809184028F3FD9F484
:103ED00021E444E164E181E00E943E3180910A01E5
:103EE000813EA1F1823E09F45DC0803E09F085C0AB
:103EF00080912202909123026EE170E00E94A2352F
:103F0000892B09F07AC0EFE4F2E086818150868344
:103F1000878181508783808581508087818581500A
:103F200081878681811169C010922302109222023A
:103F30008FEF818382838383848385E08683878375
:103F40008087818781EE80930A0157C0809121028A
:103F5000811104C0809149028D3DA1F4A9E7B2E02E
:103F600018968C911897EFE4F2E0818317968C9164
:103F70001797828316968C911697838315968C914A
:103F800084833BC080910901882331F0EFE4F2E0A3
:103F90008FEF8183828331C0EFE4F2E08FEF838380
:103FA00084832BC080912102811104C08091490239
:103FB0008D3DA1F4A9E7B2E016968C911697EFE437
:103FC000F2E0818315968C911597828314968C91DB
:103FD0001497838313968C9184830FC08091090179
:103FE000882331F0EFE4F2E08FEF8183828305C014
:103FF000EFE4F2E08FEF8383848380917102882362
:10400000C1F0809173028A3A09F0E8C0809176028B
:104010008111E4C01092710281E080930B01C3E032
:10402000D0E007C01092710281E080930B01C2E0E2
:10403000D0E0809168028823B1F180916A028A3AC7
:1040400009F0D1C080916D028111CDC0109268023B
:104050009091090181E08927809309011092230240
:104060001092220220C01092680210922302109235
:1040700022029091090181E08927809309018091B2
:104080000A01813E41F482EE80930A018091470249
:10409000811141C0ADC081EE80930A018091470239
:1040A00081110AC0A5C080914702882309F465C028
:1040B00080910A01813E69F5809149028A3A81F432
:1040C00080910901882321F082E10E94461603C0F5
:1040D00083E10E9446160E94EC2F1092470246C0D0
:1040E00080914C02882309F441C080914D028823BD
:1040F000E9F110924D0280910901882321F082E1BB
:104100000E94461603C083E10E9446160E94EC2FCF
:104110002DC0823E59F5809149028A3A81F48091FE
:104120000901882321F083E10E94461603C084E13F
:104130000E9446160E94EC2F1092470217C08091F1
:104140004C02882399F080914D02882379F01092D7
:104150004D0280910901882321F083E10E944616D7
:1041600003C084E10E9446160E94EC2F81E090E09B
:10417000909323028093220244C0409122025091E6
:1041800023024F5F5F4F50932302409322029A0114
:104190003695279536952795ABE7B4E10E94D03543
:1041A0009695879564E6689F9001699F300D11246C
:1041B0004217530731F59091210281E089278093BE
:1041C000210240335547E8F0109223021092220258
:1041D00081E080930B01C3E0D0E013C080917802AE
:1041E000811120CF26CF80916F0281113CCF5BCF10
:1041F0008091220290912302019690932302809352
:104200002202CE01DF91CF910895CF93DF93EC018D
:1042100080910801882389F01092080110922002F1
:1042200010921F02EFE4F2E08FEF8183828324E695
:104230004AE06AE081E00E943E3180911E028823BC
:10424000C9F081E08093540280918302823139F475
:10425000EFE4F2E081E0838382E084830DC080910B
:104260008302843249F4EFE4F2E082E0838384E065
:10427000848302C01092540280916802811105C0AB
:1042800080914702882309F467C010926802109257
:10429000470280918302823191F5E9E7F2E084E2FE
:1042A00082878093620283858A3A39F480917B0207
:1042B0008C3019F410927B020DC0809184028F3FE4
:1042C00049F480917B028C3029F0E9E7F2E08281A9
:1042D000845F8283809163028A3A39F480915B0221
:1042E0008C30A1F510925B0231C08F3F79F580913F
:1042F0005B028C3059F1845F80935B0227C0809110
:104300008302843219F5E9E7F2E082E18287809343
:1043100062028281811104C08CE080937B0209C01B
:1043200080917B028D3028F0E9E7F2E082818C50A9
:10433000828380915B02811104C08CE080935B02D8
:1043400005C08D3018F08C5080935B020E94EC2FDA
:104350001092200210921F02809171028823C1F0F6
:10436000809173028A3A09F044C0809176028111EB
:1043700040C01092710281E080930801C3E0D0E058
:1043800007C01092710281E080930801C2E0D0E082
:1043900040911F02509120024F5F5F4F50932002C7
:1043A00040931F029A013695279536952795ABE7DE
:1043B000B4E10E94D0359695879564E6689F900198
:1043C000699F300D112442175307C1F490911E02CA
:1043D00081E0892780931E024033554778F0109280
:1043E000200210921F0281E080930801C3E0D0E018
:1043F00005C0809178028111C4CFCACFCE01DF9170
:10440000CF910895E8E6F0E0808186608083ECE655
:10441000F0E08081806E8083EDE6F0E08081846052
:1044200080830895882339F0ECE6F0E08081806E87
:104430008083D99A0895ECE6F0E080818F718083C3
:104440000895CF93DF93EC01809113018823E9F065
:10445000109213018AE399E00E947F0F10923A02B2
:1044600010923902EFE4F2E081E0858385E08683F3
:1044700087838087818710923802109237022AEF53
:104480004AEF6AEF81E00E943E3140913902842F69
:1044900090E09C012F59364FF9015491AFE4B2E0FE
:1044A00011965C931197835B964FFC015491129681
:1044B0005C931297F901249113962C931397FC01A6
:1044C000849114968C9380913A028F5F80933A0284
:1044D0008931B1F480913802843008F043C01092E1
:1044E0003A024F5F443138F44093390280913702E9
:1044F0008230E8F509C0109239028F5F809338024C
:1045000080913702823048F561E08AE00E94A40D74
:10451000882329F0809137028F5F80933702809142
:104520003802843020F180913702823000F181E03E
:1045300080931301EFE4F2E08FEF81838283838322
:10454000848380917102882329F010927102CBE05C
:10455000D0E00DC0C2E0D0E00AC0809138028430C3
:1045600030F705C080913702823008F7CDCFCE01F9
:10457000DF91CF910895CF93DF93EC0180911201E9
:104580008823C9F010921201EFE4F2E081E0858304
:1045900011828FEF8383848385E08683878380877E
:1045A00081872AEF40E06AEF81E00E943E3110925D
:1045B0003602109235028091110180935102909140
:1045C0006802992371F010926802815019F080936B
:1045D000110103C086E080931101109236021092FF
:1045E000350280914702882391F010924702809112
:1045F00011018F5F873019F08093110103C081E0B2
:104600008093110180917102811106C05DC080917B
:104610007102882309F440C0809173028A3A51F5EF
:1046200080911101833079F028F48130D9F0823003
:1046300039F015C0853069F048F0863069F00FC058
:10464000C5E0D0E011C0C6E0D0E00EC0C7E0D0E0C9
:104650000BC0C9E0D0E008C0CAE0D0E005C0C2E0AD
:10466000D0E002C0C4E0D0E01092710281E08093FB
:1046700012010BC080917802882339F010927102E8
:1046800081E080931201C2E0D0E081E090E090935D
:104690003602809335021EC0809135029091360219
:1046A0000196803325E7920729F090933602809394
:1046B000350210C0109236021092350281E08093CC
:1046C0001201C2E0D0E006C081E090E09093360293
:1046D00080933502CE01DF91CF910895CF93DF9380
:1046E000EC01809110018823C9F010921001EFE4D1
:1046F000F2E081E0858385E08683878380878187F8
:104700008FEF81838283838310923402109233026D
:104710002AE04AE064E681E00E943E31E091320204
:10472000EE2319F180914F02813E21F481E08093C4
:1047300053021EC080914F02823E21F482E080939A
:10474000530216C080914F02833E21F483E0809390
:1047500053020EC080914F02843E21F484E0809386
:10476000530206C01092530203C08FEF8093510290
:1047700080916802882309F1109268021092340235
:104780001092330280914F02813E71F080914F026E
:10479000823E61F080914F02833E51F080914F0242
:1047A000843E41F084EE07C084EE05C081EE03C074
:1047B00082EE01C083EE80934F02809147028823EE
:1047C00009F1109247021092340210923302809144
:1047D0004F02813E71F080914F02823E61F08091E4
:1047E0004F02833E51F080914F02843E41F084EEAF
:1047F00007C082EE05C083EE03C084EE01C081EEE7
:1048000080934F02809171028823C1F080917302DE
:104810008A3A09F042C08091760281113EC010921E
:10482000710281E080931001C3E0D0E007C01092D4
:10483000710281E080931001C2E0D0E04091330228
:10484000509134024F5F5F4F5093340240933302D4
:104850009A013695279536952795ABE7B4E10E94E6
:10486000D0359695879564E6689F9001699F300DD5
:10487000112442175307B1F481E0E827E093320294
:104880004033554778F0109234021092330281E0A1
:1048900080931001C3E0D0E005C0809178028111BF
:1048A000C6CFCCCFCE01DF91CF91089588248394D9
:1048B000912C0F2EFCE0AF2EB12CF02DC0E7D2E0F2
:1048C00007E612E00F2EF6E4EF2EF2E0FF2EF02DB9
:1048D0006894CC24C1F8D12C80913B02882379F0D4
:1048E00010923C020E94FC0C2A9A329B06C06EE198
:1048F00081E00E94A32F3299FACF10923B020E94CE
:10490000B10E329B1AC081E080933C029092170155
:10491000809216010E94270D68E283E00E94A32F77
:1049200083EB99E00E947F0F87EA99E00E947F0F56
:1049300084EA99E00E947F0F06C010923C02109218
:104940001701109216018091160190911701892B81
:1049500041F00E94DD33882321F0B0921701A0922C
:1049600016018091160190911701892BD9F0809141
:104970001601909117010C97A9F02FEF84E39CE0AA
:10498000215080409040E1F700C000000E948A3230
:10499000811108C085E799E00E947F0F81E0809334
:1049A0003B029ACFE0911601F0911701EE30F1052C
:1049B00008F095C0E157FF4F0C94CA3560913C0256
:1049C00080911601909117010E943F0D909317015D
:1049D0008093160188C080911601909117010E9462
:1049E000212290931701809316017DC080911601BA
:1049F000909117010E94C21690931701809316019F
:104A000072C080911601909117010E94BB22909371
:104A100017018093160167C08091160190911701CC
:104A20000E94441F90931701809316015CC08091EF
:104A30001601909117010E942912909317018093FB
:104A4000160151C080911601909117010E948211A8
:104A5000909317018093160146C0809116019091A2
:104A600017010E94052190931701809316013BC006
:104A700080911601909117010E946E239093170167
:104A80008093160130C080911601909117010E9409
:104A9000F714909317018093160125C08091160199
:104AA000909117010E94671390931701809316014C
:104AB0001AC080911601909117010E947C27909353
:104AC0001701809316010FC0809116019091170174
:104AD0000E948D28909317018093160104C0D092F4
:104AE0001701C09216018881811107C0F8018081E9
:104AF000811103C0F701808181110E94A72D789454
:104B000080913D02811106C080911601909117019C
:104B1000892BB1F710923D02F89444CF1F920F9267
:104B20000FB60F9211242F933F934F935F936F9380
:104B30007F938F939F93AF93BF93EF93FF93CF9305
:104B4000DF93CDB7DEB72997DEBFCDBF81E080937D
:104B5000820280911601909117010C9709F4D9C037
:104B6000E9E7F2E080818F5F808380818C3309F0F8
:104B70003FC0108281818F5F818381818C33C1F539
:104B8000118282818F5F828382858231E1F48091FC
:104B90007B028C3081F4809184028A3A21F48FEF79
:104BA0008093840225C0809184028F3F09F58AEAB0
:104BB000809384021DC080917B028D30C9F481E016
:104BC00080937B0215C080918302843289F48091A6
:104BD0007B028C3021F48FEF8093840209C0809196
:104BE0007B02883129F4E9E7F2E08AEA83871282BE
:104BF000E9E7F2E090818DEC989F912D1124969534
:104C00009695969594833081389F912D1124969591
:104C100096959695990F292F220F220F920F391BE7
:104C200033839181989F912D112496959695969511
:104C300096833181389F912D11249695969596955E
:104C4000990F292F220F220F920F391B3583928142
:104C5000989F912D112496959695969590872281EF
:104C6000289F812D1124869586958695880F982FEB
:104C7000990F990F890F281B27830E94C22F882321
:104C800031F088E090E09093170180931601329BF9
:104C90003FC0189AA9E7B2E01896EC911897F0E097
:104CA000E853F64FE491E9831796EC911797F0E0FB
:104CB000E853F64FE491EA838AE38B831696EC91EE
:104CC0001697F0E0E853F64FE491EC831596EC91DB
:104CD0001597F0E0E853F64FE491ED838E83149638
:104CE000EC911497F0E0E853F64FE491EF831396BC
:104CF000EC91F0E0E853F64FE491E8871986CE0195
:104D000001960E94700F85E391E00E94700F01C030
:104D1000289829960FB6F894DEBF0FBECDBFDF915D
:104D2000CF91FF91EF91BF91AF919F918F917F9123
:104D30006F915F914F913F912F910F900FBE0F9008
:104D40001F9018951F920F920FB60F9211242F9358
:104D50003F934F935F936F937F938F939F93AF9303
:104D6000BF93EF93FF9381E080933D028091160102
:104D7000909117010C9709F474C040913E02509134
:104D80003F029A01ADECBCEC0E94D0359695879518
:104D9000969587959C01220F331F220F331F820F98
:104DA000931F4817590771F4809115018F5F843064
:104DB00018F48093150102C010921501809115011D
:104DC0000E94612D80915402882359F18091150130
:104DD000E82FF0E0E15BFD4F268190911401291747
:104DE000E0F0811105C0809150020E94752D1CC019
:104DF000813029F4809151020E94752D15C08230B6
:104E000029F4809152020E94752D0EC0833061F406
:104E1000809153020E94752D07C08FEF0E94752D5F
:104E200003C08FEF0E94752D80913E0290913F024A
:104E30000196883E23E0920729F090933F028093E9
:104E40003E0204C010923F0210923E028091140173
:104E50008F5F863018F48093140103C081E0809343
:104E60001401FF91EF91BF91AF919F918F917F912D
:104E70006F915F914F913F912F910F900FBE0F90C7
:104E80001F9018951F920F920FB60F9211248F93B7
:104E90001F9908C080917202811104C081E0809343
:104EA000700213C01E9908C080916902811104C06C
:104EB00081E08093670209C01D9907C08091480274
:104EC000811103C081E0809346028F910F900FBE45
:104ED0000F901F9018951F920F920FB60F921124EA
:104EE000329905C0289810921701109216010F9060
:104EF0000FBE0F901F901895CF93DF93EC01809118
:104F00001901882381F01092190110924502109224
:104F100044021092430281E08093180110924002F3
:104F200080E090E00CC0809118018823E9F0809126
:104F3000410290914202833E23E0920750F4019691
:104F40009093420280934102809182028111BAC003
:104F50003AC083EE93E090934202809341028091A5
:104F600082028111AFC0D0C0809141029091420273
:104F70008630910530F00197909342028093410270
:104F8000BEC085E090E09093420280934102B7C09A
:104F90001092180183EE93E09093420280934102B5
:104FA0009EC081E08093180185E090E090934202DA
:104FB00080934102809140028F5F833008F48DC05E
:104FC000109240028CC040914102509142029A01DD
:104FD000ADECBCEC0E94D03596958795969587955B
:104FE0009C01220F331F220F331F820F931F48177C
:104FF000590759F58091400281110AC05295429596
:105000004F7045275F704527642F20E040E01AC0AD
:10501000813049F4529542954F7045275F7045277E
:1050200020E060E00FC0823051F4529542954F70FD
:1050300045275F704527242F40E060E003C020E053
:1050400040E060E081E00E943E3180914302EFE465
:10505000F2E0818382838383848390917102911132
:1050600008C090916802911104C090914702992361
:1050700059F010927102109268021092470291E06A
:1050800090931901C1E0D0E0209144023091450293
:105090002F5F3F4F243F91E0390728F430934502BA
:1050A0002093440236C010924502109244028F5F52
:1050B0008A3018F4809343022CC0109243020E945D
:1050C000930D27C01092820280914102909142027A
:1050D000853F914008F05CCF76CF809340024091AD
:1050E00041025091420286CF109282028091410289
:1050F00090914202843F914008F453CF64CF809155
:1051000082028111F1CF5FCF409141025091420262
:1051100071CFCE01DF91CF9108955F926F927F9210
:105120008F929F92AF92BF92CF92DF92EF92FF92B7
:105130000F931F93CF93DF93CDB7DEB7C355D1093C
:105140000FB6F894DEBF0FBECDBFCE0101969A8F89
:10515000898F08969C8F8B8F08969E8F8D8F80E00D
:105160000E949A0F83EF91E00197F1F700C00000D1
:1051700004C064E181E00E94A32F0E94B40F882341
:10518000C1F381E00E949A0F9FE3EDE0F3E09150BC
:10519000E040F040E1F700C0000080E698E10E94A6
:1051A0007F0F88E298E10E947F0F81EF97E10E94D4
:1051B0007F0F80E997E10E947F0F8BE597E10E94C6
:1051C0007F0F81E097E10E947F0F8DEC96E10E94B6
:1051D0007F0F8DE796E10E947F0F8DE496E10E949C
:1051E0007F0F8FE196E10E947F0F81EE95E10E9493
:1051F0007F0F88EA95E10E947F0F85EA95E10E9482
:105200007F0F8EE695E10E947F0F8AE595E10E946F
:105210007F0F8DE395E10E947F0F0E94920F8E32E7
:1052200009F093C10E94920F8E3209F091C10E9441
:10523000920F8E3209F08CC10E942B10182F84E639
:105240009DE00E947F0F4AE0BE01665B7F4F812F89
:1052500090E00E941638CE01865B9F4F0E94700F2F
:10526000CE018C960E94E0108BE49DE00E947F0F9F
:105270008EE39DE00E947F0F89E29DE00E947F0FF8
:1052800086EF9CE00E947F0F8E01045D1F4F6E0130
:1052900020E3C20ED11CF80181918F018A3A29F4D2
:1052A00089EE9CE00E947F0F04C08CED9CE00E9480
:1052B0007F0F0C151D0579F787EC9CE00E947F0F8E
:1052C00084E99CE00E947F0F7E01F4E3EF0EF11C65
:1052D000F60181916F018A3A29F487E89CE00E94E7
:1052E0007F0F04C08AE79CE00E947F0FCE14DF048A
:1052F00079F78DE69CE00E947F0F88E59CE00E9494
:105300007F0F85E29CE00E947F0F8E01085C1F4F9B
:10531000F70181917F018A3A29F488E19CE00E949B
:105320007F0F04C08BE09CE00E947F0FE016F10627
:1053300079F786EF9BE00E947F0F83EC9BE00E9451
:105340007F0F7E01FCE3EF0EF11CF80181918F01CC
:105350008A3A29F486EB9BE00E947F0F04C089EA19
:105360009BE00E947F0FE016F10679F78CE99BE045
:105370000E947F0F87E89BE00E947F0F84E59BE0FF
:105380000E947F0F8E01005C1F4FF70181917F010A
:105390008A3A29F487E49BE00E947F0F04C08AE3E5
:1053A0009BE00E947F0FE016F10679F785E29BE013
:1053B0000E947F0F82EF9AE00E947F0F7E01F4E44B
:1053C000EF0EF11CF80181918F018A3A29F485EEE4
:1053D0009AE00E947F0F04C088ED9AE00E947F0F40
:1053E000E016F10679F70E94E710182FCE018C5BCA
:1053F0009F4F0E94EC108BEB9AE00E947F0F8BEA8C
:105400009AE00E947F0F1A3A29F486EA9AE00E94F5
:105410007F0F04C081EA9AE00E947F0F83E99AE03F
:105420000E947F0F8E010C5B1F4F7801F6E0EF0E9C
:10543000F11C4AE0BE01665B7F4FF80181919191BA
:105440008F010E9416388DE89AE00E947F0FCE01EE
:10545000865B9F4F0E94700F0E151F0551F70E942B
:10546000F310182F83E79AE00E947F0F83E69AE0FB
:105470000E947F0F1A3A29F48EE59AE00E947F0F6E
:1054800004C089E59AE00E947F0FCE01805B9F4FA8
:105490000E94F81085E39AE00E947F0F8DE29AE067
:1054A0000E947F0F61968FAD61978A3A29F488E256
:1054B0009AE00E947F0F04C083E29AE00E947F0F6F
:1054C00089E19AE00E947F0F62968FAD62978A3AD7
:1054D00029F484E19AE00E947F0F04C08FE09AE0F3
:1054E0000E947F0F86E09AE00E947F0F63968FAD47
:1054F00063978A3A29F481E09AE00E947F0F04C002
:105500008CEF99E00E947F0F82EF99E00E947F0F5D
:1055100064968FAD64978A3A29F48DEE99E00E94E3
:105520007F0F04C088EE99E00E947F0F82ED99E022
:105530000E947F0F89E295E10E947F0F8FE095E145
:105540000E947F0F0E94920FA3C2813709F4A0C26C
:1055500086EF94E10E947F0F7E01F9E1EF0EF11CCE
:1055600001E010E08CEE94E10E947F0F4AE0BE0162
:10557000645D7F4FC8010E941638CE018C960E9450
:10558000700F2A9A81ED94E10E947F0F2FEF89E638
:1055900098E1215080409040E1F700C00000670191
:1055A000F701619171917F0180E00E94EC332A98AC
:1055B00087EB94E10E947F0FFFEF24E38CE0F15032
:1055C00020408040E1F700C00000F6016081718159
:1055D0006C5F7F4F81E00E94EC330F5F1F4F043000
:1055E000110509F0BFCFAE014F5E5F4FBE01675F8F
:1055F0007F4FCE0101960E94301088E994E10E940D
:105600007F0F18A21F8E1AA219A21CA21BA2109211
:105610003D0210928202789481E395E7E9E7F2E097
:105620000CC022E42A95F1F700C0019731F486E717
:1056300094E10E947F0F712C5FC02185222389F3A2
:105640006E018FE1C80ED11CAA24A394B12C77243B
:10565000739409E712E0512C612CF8011186F801CE
:1056600081858823E1F3118610923D0281858111A5
:10567000C7C1E52CF62C01C0740180913D0288233E
:10568000E1F310923D024701FFEF8F1A9F0AF801E4
:105690008185882389F3F601918280828FE594E1E8
:1056A0000E947F0F4AE0BE01645D7F4FC4010E94EB
:1056B0001638CE018C960E94700FFDEDEF1AF3E0C4
:1056C000FF0A25E1E216F10448F487E594E10E941F
:1056D0007F0F83E0A816B10439F40EC08EE494E184
:1056E0000E947F0F712C08C09FEFA91AB90AE2E04F
:1056F000CE0ED11C7110B1CFF894BE01615E7F4F08
:10570000872D0E94901084E394E10E947F0F78948B
:1057100085E194E10E947F0FFF24F39400E010E004
:105720000F2EF0EDCF2ED12CF02D0F2EF6EDAF2E4B
:10573000B12CF02D01C0F82E80913D028823E1F3B9
:1057400010923D020115110529F461E08AE00E94E2
:10575000A40D6AC10130110529F461E08EE10E94B7
:10576000A40D62C10230110529F461E089E10E94B3
:10577000A40D5AC1F6018081882344F5F501E0802B
:105780008E2D0E94630F60E08AE00E94A40D8E2D92
:105790008F7D893559F40F5F1F4F03301105D8F401
:1057A00086EF93E10E947F0F8F2D65C18E3431F417
:1057B00082EB93E10E947F0FF12C0DC080E893E112
:1057C0000E947F0F8F2D00E010E055C103301105BE
:1057D00010F4F110B1CFF8948F2D0E94AA108CE52F
:1057E00093E10E947F0F1DA21EA21FA218A6E12C0A
:1057F000F12C01E0F1E0EF16F104A9F048F082E0AD
:10580000E816F104D9F093E0E916F10411F13EC075
:1058100020E040E06FEF802F0E943E3182E593E16F
:105820000E947F0F15C120E04FEF60E0802F0E94A3
:105830003E3186E493E10E947F0F0AC12FEF40E0E2
:1058400060E0802F0E943E318BE393E10E947F0F46
:10585000FFC02FEF4FEF6FEF802F0E943E318FE29E
:1058600093E10E947F0F8CE193E10E947F0F0E94E1
:10587000920F182F0E94630F20E040E060E080E06C
:105880000E943E31193709F0FFC0D4C08CE193E18A
:105890000E947F0F0E94920F182F0E94630F20E03A
:1058A00040E060E080E00E943E31193711F0193588
:1058B00099F4E5E2F0E0EC0FFD1FEE0DFF1D008313
:1058C000EFEFEE1AFE0AF4E0EF16F104C1F48AE0FD
:1058D00093E10E947F0F18C01F7D1E3429F484EDD0
:1058E00092E10E947F0F10C082EA92E10E947F0F36
:1058F0001DA21EA21FA218A6E12CF12C89CF24E024
:10590000E216F10408F476CFCE0185960E94B81015
:105910000E941C104AE0BE01675D7F4F90E00E942C
:1059200016388DE892E10E947F0FCE0189960E9481
:10593000700F84E792E10E947F0F8AE492E10E9457
:105940007F0F8BE192E10E947F0F8AEE91E10E942E
:105950007F0F86EB91E10E947F0F81E891E10E9429
:105960007F0F8AE491E10E947F0F82E191E10E9422
:105970007F0F89ED90E10E947F0F80EA90E10E9405
:105980007F0F86E690E10E947F0F8CE290E10E94FB
:105990007F0F82EF9FE00E947F0F88EB9FE00E94C5
:1059A0007F0F8EE79FE00E947F0F85E49FE00E94BB
:1059B0007F0F8CE09FE00E947F0F84ED9EE00E94AD
:1059C0007F0F8DE99EE00E947F0F88E69EE00E9497
:1059D0007F0F84E39EE00E947F0F82E09EE00E94A2
:1059E0007F0F83ED9DE00E947F0F88EA9DE00E947B
:1059F0007F0F8CE79DE00E947F0F0E94920F48C0AE
:105A0000F601118210828FE594E10E947F0F4AE037
:105A1000BE01645D7F4F80E090E00E941638CE01A9
:105A20008C960E94700F5ACEF601808188230CF06C
:105A3000D0CEA4CE81E088A74ACFE5E2F0E0EC0F1B
:105A4000FD1FEE0DFF1D0083FFEFEF1AFF0A57CF7A
:105A50008CE193E10E947F0F0E94920F182F0E9409
:105A6000630F20E040E060E080E00E943E311937A3
:105A700009F01DCFE2CFF1105ECEADCEFE01EE0DEE
:105A8000FF1D81E085A323CF193509F025CFF6CF7F
:105A900081E090E0CD5ADF4F0FB6F894DEBF0FBE25
:105AA000CDBFDF91CF911F910F91FF90EF90DF90CD
:105AB000CF90BF90AF909F908F907F906F905F90AE
:105AC00008951498759858985998811102C0149A9D
:105AD0000895813011F4759A0895823011F4589A1E
